:03000000021B6878
:0C1B6800787FE4F6D8FD758121021BAFE8
:101E9000D4CBD0D0003A00C9E8B6A800B6C800B587
:0B1EA000B1C7B000CAE4B3F600250093
:10180000E47808F208F2121F44121EAB121F3112C4
:10181000199C121D1B7BFF7A1E79907D017F01129E
:1018200010007BFF7A1E79957D237C007F017E006E
:101830001213C37BFF7A1E79977D017F031210007C
:101840007BFF7A1E79957D237C007F037E00121337
:10185000C37BFF7A1E799C7D707F031210007BFF93
:101860007A1E799F7D017F051210007BFF7A1E7919
:10187000957D237C007F057E001213C37BFF7A1EBB
:10188000799C7D707F051210007BFF7A1E79A47D04
:10189000017F071210007BFF7A1E79957D237C0063
:1018A0007F077E001213C37BFF7A1E79A97D707CAF
:1018B000007F077E001213C3121D73E47802F20842
:1018C000F208F208F208F208F27814F208F212189C
:0618D000D6120DD580F8D0
:100AF20000000000000000000000000000000000F4
:100B0200000038FCFC3800000000000D0D00000061
:100B1200000E1E00001E0E0000000000000000007B
:100B220020F8F820F8F82000020F0F020F0F020041
:100B3200387C444747CC9800060C0838380F070029
:100B420030300080C06030000C060301000C0C0045
:100B520080D87CE4BCD84000070F0808070F0800C3
:100B620000101E0E00000000000000000000000047
:100B72000000F0F80C040000000003070C0800005D
:100B82000000040CF8F000000000080C070300004D
:100B920080A0E0C0C0E0A0800002030101030200C7
:100BA200008080E0E080800000000003030000007D
:100BB20000000000000000000000101E0E000000F7
:100BC20080808080808080000000000000000000A3
:100BD20000000000000000000000000C0C000000FB
:100BE20000000080C06030000C060301000000001D
:100BF200F8F80CC40CF8F00003070C080C0703000B
:100C0200001018FCFC0000000008080F0F08080084
:100C1200080C84C4643C18000E0F0908080C0C0070
:100C2200080C444444FCB800040C0808080F0700F0
:100C3200C0E0B098FCFC8000000000080F0F080024
:100C42007C7C444444C48400040C0808080F070058
:100C5200F0F84C4444C08000070F0808080F070052
:100C62000C0C0484C47C3C0000000F0F0000000048
:100C7200B8FC444444FCB800070F0808080F0700FA
:100C8200387C444444FCF800000808080C070300C0
:100C920000000030300000000000000606000000E6
:100CA200C9E8B6A8B6C8B5B1C7B0D4CBD0D0CAE4EB
:100CB200B3F600404042CC0040A09E8282829EA0B9
:100CC2002020000000003F908840432C102846411D
:100CD200808000100C4444444445C6444444444487
:100CE200140C008040201E2040407F444444444471
:100CF2004040000000FC242424FC252624FC24245B
:100D020024040040308F80844C55252525554C8085
:100D1200808000004042445840407F40405048C6D6
:100D2200000000004044444444444444444444FFDA
:100D32000000000808E8292E28E80808C80C0BE87B
:100D42000808000000FF0949897F00000F40807FEA
:100D5200000000404042CC00202222A26222222235
:100D62002000000040201F20444E45444444454694
:100D72004C4000001088C4330040424242C242420A
:100D8200424000020100FF0000000040807F00009E
:100D920000000088681FC80810C85452D112940875
:100DA200D01000091909FF0500FF1292FF005F80B1
:100DB2007F000000007C40404040FF40404040FC3B
:100DC200000000007C40404040407F4040404040A6
:030DD200FC000022
:091EF6007F01121EFFD2B67F012C
:0C1EFF00AE071FEE600500000080F52219
:101D9E00E4FDFCC3ED9FEE6480F8EC648098501671
:101DAE00E4FBEBC3946E7480948050030B80F30DB0
:061DBE00BD00010C80DDF8
:011DC40022FC
:101F0B00D2B7121EF6C2B67F01121EFFC2B77F01F7
:031F1B00021EFFA4
:101F1E00C2B77F01121EFFC2B6121EF6D2B77F01E4
:031F2E00021EFF91
:091BF4008F828E83121F0B7F7893
:101BFD00AD07E4FCECC3940874809480502FAB05C2
:101C0D00C2B77F01121EFFEB5480FB64807004D2BB
:101C1D00B68002C2B67F01121EFFED25E0FD7F01E9
:101C2D00121EFFD2B77F01121EFF0C80C7C2B77FF5
:0B1C3D0001121EFFD2B77F01021EFF44
:091EC6007E00121ECF7F407E0059
:101ECF00121BF4E4FF121BFDAF82121BFD021F1E3B
:071EDF00F583E493FF7E0090
:101EE600121BF47F40121BFDAF82121BFD021F1E48
:081D48007862E22FFF08E2FDC2
:101D5000AA051FEF24B0FFE433FE121ECFEAC454DD
:101D60000F2410FFE433FE121ECFEA540FFF7E0053
:031D7000021ECF81
:101D1B00E4F9E9C39408748094805020E904FFE44B
:101D2B00FD121D50E4FAEAC394807480948050092C
:0C1D3B00E4FFFE121EE60A80ED0980D6CF
:011D47002279
:10199C007FF47E01121D9E7FAE1E121ECFE4FFFE51
:1019AC00121ECF7F10121EC67FB07E00121ECF7F7C
:1019BC00817E00121ECF7FFF7E00121ECF7FA17E84
:1019CC0000121ECF7FA67E00121ECF7FA87E0012B3
:1019DC001ECF7F3F7E00121ECF7FC87E00121ECF0F
:1019EC007FD37E00121ECFE4FFFE121ECF7FD57E6A
:1019FC0000121ECF7F807E00121ECF7FD97E001278
:101A0C001ECF7FF17E00121ECF7FDA7E00121ECF1A
:101A1C007F127E00121ECF7FDB121EC67F8D7E00D2
:101A2C00121ECF7F147E00121ECF7FAF7E00121EBF
:0A1A3C00CF121D1BE4FDFF021D5038
:1013C3007862EEF208EFF27866EBF208EAF208E9E7
:0813D300F27864ECF208EDF27F
:1013DB00E47869F208F2D3ED947BEC9400400E783C
:1013EB0064E4F20804F27863E2240281DF7866E2B7
:1013FB00FB08E2FA08E2F908E2FE08E2F5828E83C6
:10140B0012059FFF7E00D39400748094805002815C
:10141B00E7EF942074809480500281DAD3EF947EAE
:10142B0074809480400281DAEF24E0786CF2EE3421
:10143B00FF18F2E4786FF208F2786FE2FE08E2FF31
:10144B00C39402EE94005075786208E22FFF0808EF
:10145B00E2FD121D50E4786DF208F2786DE2FC08A3
:10146B00E2FDC39408EC9400504608E2FE08E278D3
:10147B0003C333CE33CED8F92DFDEC3EFC796CE3B0
:10148B00C4F8540FC868FF19E3C454F048FE74F253
:10149B002FF582740A3EF583E5822DF582E5833CB8
:1014AB00121EDF786EE22401F218E23400F280ABF8
:1014BB007870E22401F218E23400F28144786AE297
:1014CB002401F218E23400F27865E22408800578F2
:0C14DB006AE22401F218E23400F261F829
:0114E70022E2
:101000007862EFF208EDF208EBF208EAF208E9F292
:10101000E47868F27864E2FB08E2FA08E2F97868BA
:10102000E2F58275830012059F7002214FE4786714
:10103000F2786AF20804F27867E2900CA293FFD388
:10104000947E7480948040537864E2FB08E2FA084E
:10105000E2F97868E2FEF58275830012059FFDEFE4
:101060006D7030EEF582758300A37864E2FB08E2D0
:10107000FA08E2F912059FFF7867E2FE900CA3934D
:10108000B50710EE75F010A4FF786AE5F0F208EFEE
:10109000F280087867E22402F2809C7863E2D394BD
:1010A00071748094804007E4F218E22402F2786BB5
:1010B000E26401700218E26053E47869F27869E250
:1010C000FFC3940274809480503A121D48E47867FC
:1010D000F27867E2C39410748094805020786AE2BA
:1010E000FE08E224B5F582740C3E121EDFE22401F4
:1010F000F218E23400F27867E204F280D47869E210
:1011000004F280B97868E22402F2803BE47869F264
:101110007869E2FFC39402748094805025121D48C0
:10112000E47867F27867E2C3941074809480500B7F
:10113000E4FFFE121EE6E204F280E97869E204F2BE
:0F11400080CE7868E204F27863E22410F20114A2
:01114F00227D
:101E730025332E316600253032643A253032643AF8
:0D1E83002530326400253364002D2D2D0024
:0317D6008101018D
:101EAB0043A210E4F5D8F5E9F5F975D902F5F27509
:0B1EBB00EAFE75FAFE75DA42D2DE2264
:101E5600AC07E412032F7B337A33792378401201DF
:0C1E660006120363C374FF9FF5EAF5FA4F
:011E7200224D
:100DD500D37815E2943218E294004045E4F208F223
:100DE500121150780E120620786574FFF208741EF1
:100DF500F2087473F2780EE2FC08E2FD08E2FE08E0
:100E0500E2FF78681206207BFE7A0079161206E06A
:100E15007BFE7A0079167D407C007F057E001213EB
:100E2500C3780AE2FC08E2FD08E2FE08E2FF783E2C
:100E3500E2FB08E2F908E2FA08E2CBF81202AC603C
:100E45004B780AE2FC08E2FD08E2FE08E2FF783E84
:100E5500120620786574FFF208741EF2087473F2A6
:100E6500780AE2FC08E2FD08E2FE08E2FF78681273
:100E750006207BFE7A0079161206E07BFE7A007961
:100E8500167D407C007F037E001213C37800E2FFCD
:100E95007807E26F700218E27002E17F7806E2FEE1
:100EA50008E2FF7800F2786574FFF208741EF20814
:100EB5007479F27802E2FD08E27868CDF208EDF285
:100EC5007804E2FD08E2786ACDF208EDF208EEF268
:100ED50008EFF27BFE7A0079161206E07BFE7A00B7
:100EE50079167D307C007F017E001213C3780EE2F7
:100EF500FC08E2FD08E2FE08E2FF783AE2FB08E2C0
:100F0500F908E2FA08E2CBF81202AC6012780EE2B8
:100F1500FC08E2FD08E2FE08E2FF783A120620121C
:100F250014E87801E2603D7844E2FE08E2FF7812B9
:100F3500EEF208EFF2FF121E56786574FFF20874A0
:100F45001EF2087488F27812E2FF08E27868CFF2A0
:100F550008EFF27BFE7A0079161206E07BFE7A0036
:100F65007916800BE4FF121E567BFF7A1E798C7D65
:0A0F7500487C007F077E001213C3C2
:010F7F00224F
:1016F800010D0115011E0127013001390142014B7D
:101708000154015D01660167016B0172017B01856E
:101718000190019C01A901B601C201CF01DC01E8D9
:1017280001F401FF020A0215021F02290233023CDA
:101738000245024E02570260026802710279028273
:10174800028A0292029A02A202AA02B102B902C154
:1017580002C802D002D702DE02E502EC02F302FA66
:1017680003010308030F0316031D032003240328A2
:10177800032D03310336033B03410346034B034F59
:1017880003540358035D036103650368036C036F27
:10179800037203760378037B037E03810383038646
:1017A8000389038B038E0391039303960399039B89
:1017B800039E03A103A303A603A803AB03AD03B0D1
:0E17C80003B203B403B603B703B903BA03BAFE
:1017D900842E3C23D70A84323DCCCCCD842600000C
:0817E9000000842A3F8000008B
:0F1F4400759D01E4F5BDF5BE75BCE07836F2225F
:101DEC00E4F5BDF5BEEF44E8F5BC00000000E5BC31
:101DFC0030E4FB53BCEFAFBDEF75F004A4FFAEF0C5
:051E0C00ADBEEF4DFF2B
:011E110022AE
:0715F8007867EEF208EFF244
:1015FF00782AE2FC08E2FD08E2FE08E2FF08E2FBBF
:10160F0008E2F908E2FA08E2CBF8120015782A127C
:10161F0006207832E2FC08E2FD08E2FE08E2FF78DD
:10162F002AE2FB08E2F908E2FA08E2CBF812001509
:10163F00C004A905AA06AB07782AE2FC08E2FD0858
:10164F00E2FE08E2FFD00012020F7869120620783E
:10165F0067E2FC08E2FDE412032A7826E2FB08E2C7
:10166F00F908E2FA08E2CBF81200111203637826A8
:10167F00E2FB08E2F908E2FA08E2CBF8C000C00189
:10168F00C002C003AD07AC06EC12032A7869E2FB77
:10169F0008E2F908E2FA08E2CBF8120106D003D00B
:1016AF0002D001D00012001578261206207869E2C8
:1016BF00FB08E2F908E2FA08E2CBF8E4FFFE7D80CE
:1016CF007C3F120011782AE2FB08E2F908E2FA08DF
:1016DF00E2CBF8120106782A1206207826E2FC08DF
:0816EF00E2FD08E2FE08E2FF43
:0116F70022D0
:10115000E4FF121DEC1215F87862120620E478669E
:10116000F27866E225E024F8F582E43416F583E4AB
:1011700093FC740193FDE412032A7862E2FB08E217
:10118000F908E2FA08E2CBF81202AC6009400778ED
:1011900066E204F280CBE4FFFE7D207C417862E2CF
:1011A000FB08E2F908E2FA08E2CBF8120106C004F3
:1011B000C005C006C0077866E225E024F6F582E4A3
:1011C0003416F583E493FE740193FF7C007D0A12CC
:1011D0000600AC06AD07E412032AA804A905AA0676
:1011E000AB07D007D006D005D004120011C004C050
:1011F00005C006C0077866E2FF25E024F6F582E424
:101200003416F583E493FC740193FDEF25E024F894
:10121000F582E43416F583C37401939DFDE4939C39
:10122000FCE412032AA804A905AA06AB07D007D03C
:1012300006D005D00412020FC004C005C006C007C6
:101240007866E2FF7E007C007D0A120600AC06ADE7
:1012500007EC12032AD003D002D001D000120015EF
:1012600078621206207862E2FC08E2FD08E2FE08DD
:10127000E2FFE4FBFA7920784112020F786212064D
:0E128000207862E2FC08E2FD08E2FE08E2FFD0
:01128E00223D
:0317F10081370A33
:03000B00021A4690
:101A4600C0E0C0D075D000C0007837E214F2E27072
:101A560010740AF2D2097815E22401F218E2340071
:101A6600F27809E22401F218E23400F2D308E29493
:101A7600E818E294034054E4F208F27807E22401FD
:101A8600F218E23400F2B2CDD308E2943C18E294A4
:101A9600004038E4F208F27805E22401F218E23454
:101AA60000F2D308E2943C18E29400401EE4F208E7
:101AB600F27803E22401F218E23400F2D308E29449
:101AC6001818E294004004E4F208F2D000D0D0D016
:021AD600E032FC
:101F3100438E80E4F589758A71758CD5D28CD2A9CE
:031F4100D2AF22FA
:100F8000786AEBF208EAF208E9F27868EEF208EF24
:010F9000F26E
:100F9100786EE22FFF18E23EFED3EF9400EE94024A
:100FA10040037F0022E4786FF208F2786DE2FE08D8
:100FB100E2FF08E2FC08E2FDC39FEC9E5031786934
:100FC100E22DFF18E23CFE121E12786AE2FB08E2F3
:100FD100FA08E2F9786FE2FC08E2F5828C83EF12FD
:100FE10005DE7870E22401F218E23400F280BC7F61
:010FF10001FE
:010FF20022DC
:10128F00786AEBF208EAF208E9F27868EEF208EF12
:01129F00F25C
:1012A000786EE22FFF18E23EFED3EF9400EE940238
:1012B00040037F00227F007E02121E37E4786FF227
:1012C00008F2786FE2FE08E2FFC3EE9402502212A9
:1012D0001E127871EFF2FD18E22400FF18E23402CA
:1012E000FE121CF87870E22401F218E23400F28059
:1012F000D1E4FFFE121E37E4786FF208F27868E25C
:10130000FE08E2FF786FE2FC08E2FDC39FEC9E500E
:101310001AE42DFFEC3402FE121E12121CEC78703F
:10132000E22401F218E23400F280D27868E2FF0889
:10133000E2786FCFF208EFF2786DE2FE08E2FF7814
:1013400069E22FFF18E23EFEC37870E29F18E29E2A
:101350005034E2FE08E2FF7868E2FC08E2FDC3EFE9
:101360009DFDEE9CFC08E2FB08E2FA08E2F98D82A2
:101370008C8312059FFD121CF87870E22401F2188C
:10138000E23400F280B2786DE2FE08E2FF7869E2B2
:101390002F7970F318E23E19F3786FE2FE08E2FF4E
:1013A000C3EE9402501AE42FFFEE3402FE121E1216
:1013B000121CEC7870E22401F218E23400F280D9B9
:0213C0007F01AB
:0113C2002208
:101E1200E4F5C275C78275C5017838EEF208EFF2B3
:101E220018E2F5C308E2F5C475C65A75C6A50012D4
:051E32000FF3AFC22216
:0C1CEC007871EFF2FD786FE2FE08E2FF75
:101CF80075C78275C5027838EEF208EFF218E2F57A
:101D0800C308E2F5C4AF058FC275C65A75C6A500EB
:031D1800020FF3C4
:101E370075C78275C5037838EEF208EFF218E2F538
:0F1E4700C308E2F5C475C65A75C6A500020FF3AD
:0C0FF300E4F5C7F5C5F5C6F5C3F5C4224A
:051C4800786212062085
:101C4D007862E2FC08E2FD08E2FE08E2FFE4FBFA3E
:101C5D007920784112010678621206207862E2FC42
:101C6D0008E2FD08E2FE08E2FF120363AD07AC06D1
:101C7D00ECFFEF7866F2ED08F27BFE7A007966787C
:0D1C8D006DE4F2087402F2E4FFFE02128F13
:101C9A007BFE7A007966786DE4F2087402F2E4FF5A
:101CAA00FE120F807866E27F00FE08E2FDEEFCE499
:101CBA0012032A78621206207862E2FC08E2FD0822
:101CCA00E2FE08E2FFE4FBFA7920784112020F787B
:101CDA00621206207862E2FC08E2FD08E2FE08E2EF
:011CEA00FFFA
:011CEB0022D6
:101D7300121C9A780A1206207846E4F2087464F278
:101D83000812062C40A00000784C12062C4080005C
:0B1D930000785012062C404000002297
:1014E800783EE2FB08E2F908E2FA08E2CBF8C0002D
:1014F800783AE2FC08E2FD08E2FE08E2FFD00012BA
:1015080000111203637854EEF208EFF208E2FC08C7
:10151800E2FDC3EF9DFDEE9CFC12032A7848E2FB36
:1015280008E2F908E2FA08E2CBF8120106C004C0A2
:1015380005C006C0077854E2FC08E2FDEC12032A55
:10154800784CE2FB08E2F908E2FA08E2CBF812016B
:1015580006D003D002D001D000120015C004C00587
:10156800C006C0077857E225E0FF18E233FEC3182B
:10157800E29FFF18E29EFE7859E22FFD18E23EFC3A
:1015880012032A7850E2FB08E2F908E2FA08E2CBF3
:10159800F8120106D003D002D001D00012001512B3
:1015A80003637845E22FF218E23EF27856E2FF082C
:1015B800E208CFF208EFF27854E2FF08E208CFF22F
:1015C80008EFF27844E2FE08E2FFD39400EE64806C
:1015D80094805006E418F208F2227846E2FC08E209
:0F15E800FDD3EF9DEE9C40077844ECF208EDF246
:0115F70022D1
:0917F400815D00815E00815F004F
:101AD800E4FFFE2096010F209704EF4402FF20CC7C
:101AE80004EF4404FFEF6056785DE26F704A08E245
:101AF80004F2E2FDC3943C7480948050127860E252
:101B0800FC131354017008EC4402F2785CEFF2C342
:101B1800ED943C74809480401F7860E24404F2188D
:101B2800E2FD04F2ED64027006EF4480FE8004EFEB
:101B38004440FE785E7432F2785DEFF2801F786080
:101B4800E230E10720E204785CE2FE7860E254FDCE
:0F1B5800F254FBF2E4785EF208F2785DF2AF0629
:011B6700225B
:1018D600200902219BC209121AD87861EFF224FE70
:1018E600602124FE606024036002219B7801E2FFF0
:1018F6007E0064017002F222EF4E6002219B7801A5
:1019060004F222780AE2FC08E2FD08E2FE08E2FFA1
:10191600E4FBFA7980783F120015780A120620E473
:10192600FFFE7D487C42780AE2FB08E2F908E2FA0B
:1019360008E2CBF81202AC604C404A780A12062C38
:1019460042480000803F780AE2FC08E2FD08E2FE19
:1019560008E2FFE4FBFA7980783F120011780A1258
:101966000620E4FFFE7D807C3F780AE2FB08E2F970
:1019760008E2FA08E2CBF81202AC5009780A12061D
:101986002C3F800000780AE2FC08E2FD08E2FE082F
:06199600E2FF121C4822D2
:10000E000203CFE86480F8E933E83360110460F04E
:10001E00ED33EC337009E8FCE9FDEAFEEBFF220458
:10002E0060DED3EB9FEA9EE99DE8C2E78CF0C2F753
:10003E0095F0400CE8CCF8E9CDF9EACEFAEBCFFB1F
:10004E0012039A85D0F05804700320D5B3E80470DB
:10005E00075002B2D50203D992D5EC0460F7E4CC76
:10006E00C0E0C398F8603B94186008400DD0E0FBE8
:10007E000203B1E4FBFAC9FC8028E830E406E4C9C7
:10008E00FBE4CAFCE830E305E4C9CACBFCE854073C
:10009E006010F8C3E913F9EA13FAEB13FBEC13FC47
:1000AE00D8F130F52FC3E49CFCEF9BFFEE9AFEEDEA
:1000BE0099FDD0E0FBEF4E4D4C701222DB03020394
:1000CE00D6EC2CFCEF33FFEE33FEED33FDED30E7D7
:1000DE00EB0203B1EF2BFFEE3AFEED39FDD0E0FB64
:1000EE0050130BBB00030203D9ED13FDEE13FEEF0D
:0800FE0013FFEC13FC0203B137
:10010600EC4D6011E8497017ED33EC3304600DE4F3
:10011600FCFFFEFD22E933E8330470F80203CF1238
:10012600039A58046009E4CC248150062850090239
:1001360003D92840030203D6C0E0EB4A7044B980D5
:1001460006D0E0FB0203C5EF4E701CBD8008EBFF36
:10015600EAFEE9FD80EBE98DF0A4FEE5F00201EF91
:10016600E9CDF9EAFEEBFFEF89F0A4FCE5F0CE89D4
:10017600F0A42EFFE435F0CD89F0A42DFEE435F091
:100186008067EF4E7005BD80D780C3EF8BF0A4ACBF
:10019600F0EE8BF0A42CFCE435F0F8EF8AF0A42CFA
:1001A600E5F038FCE433CB8DF0A42CFCE5F03BF80D
:1001B600EE8AF0A42CFCE5F038F8E433CF89F0A4FD
:1001C6002CFCE5F038CF3400CE89F0A42FFFE5F003
:1001D6003EFEE433C98DF0A42EFEE5F039CD8AF05B
:1001E600A42FFFE5F03EFEE43DFD33D0E0FB5007D3
:1001F6000BBB000F0203D9EC2CFCEF33FFEE33FEF2
:06020600ED33FD0203B11F
:10020C000203D9EC5D046005E8590470030203CFC6
:10021C0012039A580460F6EC4860F2EC7004FDFE90
:10022C00FF22C860DB2481C85009C39860025006C5
:10023C000203D69850CAF582E9294B4A7005AB8265
:10024C000203C575F0007C1A7880C3EF9BEE9AED23
:10025C0099400DC3EF9BFFEE9AFEED99FDE842F03D
:10026C00DC23ACF0D0E0FFD0E0FED0E0FDAB822090
:10027C00E7101BEB60BAEC2CFCEF33FFEE33FEED1A
:10028C0033FD0203B1E803F830E705C0F075F00068
:10029C00EF2FFFEE33FEED33FD40B830E7C280AAFE
:1002AC0074F8CC6480CCC86480C8F58204604FC3F9
:1002BC00EB9FF5F0EA9E42F0E99D42F0E89C45F098
:1002CC00603C501DE5825FFFE582D313CB5BCBF422
:1002DC002B5582FB50280ABA002409B9002008804B
:1002EC001DE5825BFBE582D313CF5FCFF4C3132FE5
:1002FC005582FF50090EBE00050DBD00010CC3EB6D
:10030C009FF5F0EA9E42F0E99D42F0E89C45F060D2
:09031C0007CC4820E701B3EC22F4
:1003250075F020800E75F010800575F0087D007E53
:10033500007F003392D530D503120612EC334010FE
:10034500EF33FFEE33FEED33FDEC33FCD5F0ED225C
:0E035500E5F0247EA2D513CC92E7CDCEFF2298
:10036300EDD2E7CD33EC3392D524814006E4FFFE92
:10037300FDFC22FCE4CFCECDCC24E0501174FF80F1
:10038300EDC3CC13CCCD13CDCE13CECF13CF04708E
:07039300F030D5DE02061276
:10068400E5082465F8E205082278623007027865F7
:10069400E475F0011206450205862000EB7F2ED298
:1006A400008018EF540F2490D43440D4FF30040B4E
:1006B400EF24BFB41A0050032461FFE5096002155A
:1006C40009050CE50C7002050B30070D7862E47522
:1006D400F001120645EF0205CC021DC57403D207D2
:1006E4008003E4C207F5087862120655E4F509F5BB
:1006F4000BF50CE50960077F201206BF80F5750A2B
:10070400FFC201C200C202C203C205C206C208126D
:10071400068DFF700D3007057F001206D0AF0CAEBA
:100724000B22B4255FC2D5C20412068DFF24D0B4B7
:100734000A00501A75F00A780930D50508B6FF0189
:1007440006C6A426F620D5047002D20380D924CF8D
:10075400B41A00EF5004C2E5D2040209BCD20180ED
:10076400C6D20080C0D20280BCD2D580BAD2058065
:10077400B47F201206BF2002077401B5090040F1BE
:10078400120684FF1206BF0206F7D208D20680952D
:10079400120684FB120684FA120684F94A4B700688
:1007A40079B37A0A7BFF20022EE509602A7E008E47
:1007B4008275830012059F60060EEE650A70F0C212
:1007C400D5EBC0E0EAC0E0E9C0E0EE120A1CD0E0DC
:1007D400F9D0E0FAD0E0FB120586FF60AAEBC0E096
:1007E400EAC0E0E9C0E01206BFD0E02401F9D0E09D
:1007F4003400FAD0E0FBE50A0460DCD50AD980872E
:10080400D20280A21209FF60F7E50A700104120304
:10081400E4A90A600DE50A600914F50A120AA6EFB4
:1008240060F3EA30E702F404C3995077EAF4250A46
:100834000430E701E404F50A800D1209FF60C1EAFF
:10084400050A250A1203E4EA7878F230E701E42580
:100854000A04D50A0420050114120A1CE4C0E0129B
:100864000AA67878E2601320E70714F21206A7803C
:100874002204F2D0E014C0E07F001206A7E50A606B
:100884000712069E150A800B30050312069ED0E05F
:100894000206F7D0E00480C51209FF60A0E50A044F
:1008A4001203E47878EAF2E50A20050260010424E0
:0C08B40004120A1C74FF04C0E0120AA623
:1008C0001206A7E50A200502600312069ED0E0B5D5
:1008D0000AE87F451206B17878E27F2B30E7047F83
:1008E0002DF404C0E01206BFD0E075F00A84C0F019
:1008F0001206A8D0E01206A80206F7791080027945
:1009000008C206C2088008D2D5790A8004790AC2D2
:10091000D5E50A047002F50AE4FAFDFEFF1206842A
:10092000FC7B08200113120684FD7B1030000A12A4
:100930000684FE120684FF7B20EC3382D592D550CC
:1009400013C3E43000069FFFE49EFEE42001039DF4
:10095000FDE49CFCE4CBF8C201EC700CCFCECDCC16
:10096000E824F8F870F38017C3EF33FFEE33FEEDA1
:1009700033FDEC33FCEB33FB994002FB0FD8E9EB82
:10098000300105F8D0E0C448B201C0E00AEC4D4E99
:100990004F78207B0070C2EAB50A0040BCC0E0126C
:1009A0000A1ED0F0D0E0200104C4C0E0C4B201C0EF
:1009B000F01206A8D0F0D5F0EB0206F712065E079B
:1009C000945308FB5807654C07614208FF4F09071D
:1009D00044090749077A43090D55083E46089C45D6
:1009E0000808470AD35007692D076D2E07902B077B
:1009F0007123078E200ABC2A07294800000788E5D2
:100A00000AB4FF03750A06120684FC120684FD125E
:100A10000684FE120684FF7871020413790AA2D5B7
:100A2000200314300509B910020404B9080104A216
:100A3000D52006025001042002689202B509005038
:100A400034C0E07F203003197F30A20272067205A5
:100A5000500F120A75C202C206C205C2087F30805A
:100A60000F300503E9C0E01206BF300503D0E0F9FE
:100A7000D0E0B509CC3005177F30B9100C1206BF95
:100A80007F583004077F788003B908031206BF300F
:100A900002057F2D0206BF7F202008F87F2B20064D
:100AA000F322920280CF7F00B4070050052471F832
:100AB000E2FF22286E756C6C2900D2011206843088
:100AC00001F8C201780930D50108F60207292D5036
:100AD0004349581206842403B405004001E4900AF7
:100AE000CE931206B0743A1206B0D203750904020E
:020AF00008FB01
:10039A00E9D2E7C933E833F892D5EDD2E7CD33ECA9
:0703AA0033FC5002B2D52222
:1003B100EC30E7100FBF000C0EBE00080DBD0004AD
:1003C1000BEB6014A2D5EB13FCED92E7FD2274FF59
:1003D100FCFDFEFF22E480F8A2D574FF13FC7D80B2
:0303E100E480EFC6
:1003E400F920E72824F950037907E4F42402FB18E0
:1003F400DBFDE224FB5014E9600DE4F218E204F2A0
:0F040400B40A08E4F2D9F57401F20A22C2D52233
:10041300ED33EC3392D5FA602AB4FF33EDC2E77BB8
:10042300FF60067A047938E4227A04794120D504FE
:100433007A04793C224E614E002B494E46002D49E9
:100443004E4600E47A08F208DAFC7B00740722E8DF
:10045300C0E0ECC0E0EDC0E0EEC0E0EFC0E0EA7564
:10046300F010A4CAABF075F04DA42BFBE435F0FCFF
:10047300EA2410FAEB34C5FBEC34D9FCEDC2E7FFF8
:1004830075F056A4F42411C5F0F434C58FF0A42AF2
:10049300E5F03BE43CF220E714120546D0E0FFD040
:1004A300E0FED0E0FDD0E0FC12020F8014F4041251
:1004B3000546D0E0FFD0E0FED0E0FDD0E0FC120125
:1004C30006D0E0F8E2FAEDD2E7CD33EC332482FB39
:1004D300E4C3CF33CFCE33CECD33CD33DBF37B0782
:1004E30075F00A846004F2081B0AE5F0F2088FF045
:1004F300740AA4FFACF08EF0740AA42CFEACF05086
:10050300010C8DF0740AA42CFDE435F0F208DBDE57
:0305130074072248
:100516003F8000004120000042C80000447A0000ED
:10052600461C400047C35000497424004B1896806F
:100536004CBEBC205A0E1BCA6753C21C749DC5AE66
:10054600FB60065407601C2323120574EB543860C5
:100556000912056012056F120106ECF8EDF9EEFAC4
:10056600EFCB22EB12056F80F1543803241C900563
:1005760016FE93FC0EEE93FD0EEE930ECE93FF2227
:101B7400021800E493A3F8E493A34003F68001F26F
:101B840008DFF48029E493A3F85407240CC8C33372
:101B9400C4540F4420C8834004F456800146F6DF41
:101BA400E4800B01020408102040809017D6E47EE4
:101BB400019360BCA3FF543F30E509541FFEE49336
:101BC400A360010ECF54C025E060A840B8E493A3FD
:101BD400FAE493A3F8E493A3C8C582C8CAC583CA28
:101BE400F0A3C8C582C8CAC583CADFE9DEE780BEE0
:0117FD0000EB
:10058600BB010689828A83E0225002E722BBFE0273
:09059600E32289828A83E49322A6
:10059F00BB010CE58229F582E5833AF583E0225011
:1005AF0006E92582F8E622BBFE06E92582F8E2225B
:0D05BF00E58229F582E5833AF583E4932275
:1005CC00BB010689828A83F0225002F722BBFE010E
:0205DC00F32208
:1005DE00F8BB010DE58229F582E5833AF583E8F053
:1005EE00225006E92582C8F622BBFE05E92582C8FF
:0205FE00F222E7
:10060000EF8DF0A4A8F0CF8CF0A428CE8DF0A42E0E
:02061000FE22C8
:0E061200C3E49FFFE49EFEE49DFDE49CFC22F9
:0C062000ECF208EDF208EEF208EFF22216
:10062C00D083D082E493F208740193F2087402939D
:09063C00F208740393F2740473D4
:10064500FAE2FB0808E2F925F0F218E2CA3AF222CA
:09065500EBF208EAF208E9F222D6
:10065E00D083D082F8E4937012740193700DA3A32B
:10066E0093F8740193F5828883E47374029368603F
:06067E00EFA3A3A380DF3F
:101DC500EFB40A07740D121DD0740A309811A89942
:101DD500B8130CC2983098FDA899C298B811F6307E
:071DE50099FDC299F5992256
:00000001FF
