:03000000021BA838
:0C1BA800787FE4F6D8FD758121021BEF68
:101F6E00D4CBD0D0003A00C9E8B6A800B6C800B5A8
:0B1F7E00B1C7B000CAE4B3F6002500B4
:10175F00E4900038F0A3F0122037121F89122024D2
:10176F001219BE121E1D7BFF7A1F796E7D017F013C
:10177F0012120E7BFF7A1F79737D237C007F017E0F
:10178F00001214E27BFF7A1F79757D017F0312121D
:10179F000E7BFF7A1F79737D237C007F037E0012FF
:1017AF0014E27BFF7A1F797A7D707F0312120E7B12
:1017BF00FF7A1F797D7D017F0512120E7BFF7A1F45
:1017CF0079737D237C007F057E001214E27BFF7A04
:1017DF001F797A7D707F0512120E7BFF7A1F798237
:1017EF007D017F0712120E7BFF7A1F79737D237C99
:1017FF00007F077E001214E27BFF7A1F79877D70CE
:10180F007C007F077E001214E2121DEEE49000327E
:10181F00F0A3F0A3F0A3F0A3F0A3F0900044F0A383
:09182F00F012183812104480F880
:100B360000000000000000000000000000000000AF
:100B4600000038FCFC3800000000000D0D0000001D
:100B5600000E1E00001E0E00000000000000000037
:100B660020F8F820F8F82000020F0F020F0F0200FD
:100B7600387C444747CC9800060C0838380F0700E5
:100B860030300080C06030000C060301000C0C0001
:100B960080D87CE4BCD84000070F0808070F08007F
:100BA60000101E0E00000000000000000000000003
:100BB6000000F0F80C040000000003070C08000019
:100BC6000000040CF8F000000000080C0703000009
:100BD60080A0E0C0C0E0A080000203010103020083
:100BE600008080E0E0808000000000030300000039
:100BF60000000000000000000000101E0E000000B3
:100C0600808080808080800000000000000000005E
:100C160000000000000000000000000C0C000000B6
:100C260000000080C06030000C06030100000000D8
:100C3600F8F80CC40CF8F00003070C080C070300C6
:100C4600001018FCFC0000000008080F0F08080040
:100C5600080C84C4643C18000E0F0908080C0C002C
:100C6600080C444444FCB800040C0808080F0700AC
:100C7600C0E0B098FCFC8000000000080F0F0800E0
:100C86007C7C444444C48400040C0808080F070014
:100C9600F0F84C4444C08000070F0808080F07000E
:100CA6000C0C0484C47C3C0000000F0F0000000004
:100CB600B8FC444444FCB800070F0808080F0700B6
:100CC600387C444444FCF800000808080C0703007C
:100CD60000000030300000000000000606000000A2
:100CE600C9E8B6A8B6C8B5B1C7B0D4CBD0D0CAE4A7
:100CF600B3F600404042CC0040A09E8282829EA075
:100D06002020000000003F908840432C10284641D8
:100D1600808000100C4444444445C6444444444442
:100D2600140C008040201E2040407F44444444442C
:100D36004040000000FC242424FC252624FC242416
:100D460024040040308F80844C55252525554C8041
:100D5600808000004042445840407F40405048C692
:100D6600000000004044444444444444444444FF96
:100D76000000000808E8292E28E80808C80C0BE837
:100D86000808000000FF0949897F00000F40807FA6
:100D9600000000404042CC00202222A262222222F1
:100DA6002000000040201F20444E45444444454650
:100DB6004C4000001088C4330040424242C24242C6
:100DC600424000020100FF0000000040807F00005A
:100DD60000000088681FC80810C85452D112940831
:100DE600D01000091909FF0500FF1292FF005F806D
:100DF6007F000000007C40404040FF40404040FCF7
:100E0600000000007C40404040407F404040404061
:030E1600FC0000DD
:091FD4007F01121FDDD2B67F016E
:0C1FDD00AE071FEE600500000080F5223A
:101E9E00E4FDFCC3ED9FEE6480F8EC648098501670
:101EAE00E4FBEBC3946E7480948050030B80F30DAF
:061EBE00BD00010C80DDF7
:011EC40022FB
:101FFE00D2B7121FD4C2B67F01121FDDC2B77F0146
:03200E00021FDDD1
:10201100C2B77F01121FDDC2B6121FD4D2B77F0132
:03202100021FDDBE
:091D66008F828E83121FFE7F782C
:101D6F00AD07E4FCECC3940874809480502FAB054E
:101D7F00C2B77F01121FDDEB5480FB64807004D269
:101D8F00B68002C2B67F01121FDDED25E0FD7F0197
:101D9F00121FDDD2B77F01121FDD0C80C7C2B77FC4
:0B1DAF0001121FDDD2B77F01021FDD13
:091FA4007E00121FAD7F407E009B
:101FAD00121D66E4FF121D6FAF82121D6F0220110C
:071FBD00F583E493FF7E00B1
:101FC400121D667F40121D6FAF82121D6F02201119
:091E4A00900000E02FFFA3E0FD71
:101E5300AA051FEF24B0FFE433FE121FADEAC454FA
:101E63000F2410FFE433FE121FADEA540FFF7E0070
:031E7300021FAD9E
:101E1D00E4F9E9C39408748094805020E904FFE448
:101E2D00FD121E53E4FAEAC3948074809480500925
:0C1E3D00E4FFFE121FC40A80ED0980D6ED
:011E49002276
:1019BE007FF47E01121E9E7FAE1E121FADE4FFFE4F
:1019CE00121FAD7F10121FA47FB07E00121FAD7FBD
:1019DE00817E00121FAD7FFF7E00121FAD7FA17EA4
:1019EE0000121FAD7FA67E00121FAD7FA87E0012D3
:1019FE001FAD7F3F7E00121FAD7FC87E00121FAD50
:101A0E007FD37E00121FADE4FFFE121FAD7FD57E89
:101A1E0000121FAD7F807E00121FAD7FD97E001297
:101A2E001FAD7FF17E00121FAD7FDA7E00121FAD5B
:101A3E007F127E00121FAD7FDB121FA47F8D7E00F2
:101A4E00121FAD7F147E00121FAD7FAF7E00121FDE
:0A1A5E00AD121E1DE4FDFF021E5331
:1014E200900000EEF0A3EFF0900004EBF0A3EAF01E
:0B14F200A3E9F0900002ECF0A3EDF085
:1014FD00E4900007F0A3F0D3ED947BEC940040153D
:10150D00900002E4F0A304F0900001E02402F090BA
:10151D000000021623900004E0FBA3E0FAA3E0F91B
:10152D00A3E0FEA3E0F5828E831205AFFF7E00D30C
:10153D00940074809480500302163BEF94207480C5
:10154D009480500302162AD3EF947E7480948040C9
:10155D000302162AEF24E0FFEE34FF900009F0A3FA
:10156D00EFF0E490000DF0A3F090000DE0FEA3E08D
:10157D00FFC39402EE9400400302160B900000A3EB
:10158D00E02FFFA3A3E0FD121E53E490000BF0A388
:10159D00F090000BE0FCA3E0FDC39408EC94005028
:1015AD004CA3E0FEA3E07803C333CE33CED8F92DA0
:1015BD00FDEC3EFC90000AE0C4F8540FC868FF90A3
:1015CD000009E0C454F048FE74362FF582740B3ECA
:1015DD00F583E5822DF582E5833C121FBD90000C4D
:1015ED00E004F070AC90000BE004F080A490000ECD
:1015FD00E004F0700690000DE004F0021576900006
:10160D0008E004F07006900007E004F0900003E09D
:10161D002408F0900002E03400F00215229000083A
:0E162D00E004F07006900007E004F0021522C1
:01163B00228C
:10120E00900000EFF0A3EDF0A3EBF0A3EAF0A3E95A
:01121E00F0DF
:10121F00E4900006F0900002E0FBA3E0FAA3E0F9EF
:10122F00900006E0F5827583001205AF700302137C
:10123F0080E4900005F0900008F0A304F090000502
:10124F00E0900CE693FFD3947E748094804052908C
:10125F000002E0FBA3E0FAA3E0F9900006E0FEF540
:10126F00827583001205AFFDEF6D702CEE2401FF28
:10127F00E433FE8F828E831205AFFF900005E0FEF0
:10128F00900CE793B50711EE75F010A4FF900008CE
:10129F00E5F0F0A3EFF08009900005E02402F08064
:1012AF009C900001E0D39471748094804009E4F025
:1012BF00900000E02402F0900008E07004A3E064C6
:1012CF00016060E4900007F0900007E0FFC3940214
:1012DF00748094805044121E4AE4900005F09000F0
:1012EF0005E0C39410748094805027900008E0FEAE
:1012FF00A3E024F9F582740C3E121FBD900009E0A3
:10130F0004F07006900008E004F0900005E004F08F
:10131F0080CC900007E004F080AE900006E024023D
:10132F00F08044E4900007F0900007E0FFC39402C0
:10133F0074809480502B121E4AE4900005F09000A8
:10134F0005E0C3941074809480500EE4FFFE121FCA
:10135F00C4900005E004F080E5900007E004F08001
:10136F00C7900006E004F0900001E02410F0021294
:01137F002449
:01138000224A
:101F510025332E316600253032643A253032643A19
:0D1F61002530326400253364002D2D2D0045
:041FE9004100310181
:101F890043A210E4F5D8F5E9F5F975D902F5F2752A
:0B1F9900EAFE75FAFE75DA42D2DE2285
:101F3400AC07E412032F7B337A3379237840120100
:0C1F440006120363C374FF9FF5EAF5FA70
:011F5000226E
:10104400D3900045E09432900044E094004049E499
:10105400F0A3F0120E1990003E12063090000374B3
:10106400FFF0A3741FF0A37451F090003EE0FCA3C2
:10107400E0FDA3E0FEA3E0FF9000061206307B0132
:101084007A0079461207187B017A0079467D407C04
:10109400007F057E001214E290003AE0FCA3E0FD1C
:1010A400A3E0FEA3E0FF90007DE0F8A3E0F9A3E055
:1010B400FAA3E0FB1202AC605090003AE0FCA3E01B
:1010C400FDA3E0FEA3E0FF90007D12063090000334
:1010D40074FFF0A3741FF0A37451F090003AE0FC85
:1010E400A3E0FDA3E0FEA3E0FF9000061206307B20
:1010F400017A0079461207187B017A0079467D400F
:101104007C007F037E001214E2900030E0FF900028
:1011140036E07003A3E06F700302120D900036E016
:10112400FEA3E0FF900030F090000374FFF0A3747E
:101134001FF0A37457F0900032E0FDA3E090000686
:10114400CDF0A3EDF0900034E0FDA3E0900008CDD5
:10115400F0A3EDF0A3EEF0A3EFF07B017A00794663
:101164001207187B017A0079467D307C007F017E6E
:10117400001214E290003EE0FCA3E0FDA3E0FEA315
:10118400E0FF900079E0F8A3E0F9A3E0FAA3E0FB24
:101194001202AC601490003EE0FCA3E0FDA3E0FE6C
:1011A400A3E0FF90007912063012163C900031E063
:1011B4006041900083E0FEA3E0FF900042EEF0A3C4
:1011C400EFF0121F3490000374FFF0A3741FF0A318
:1011D4007466F0900042E0FFA3E0900006CFF0A315
:1011E400EFF07B017A0079461207187B017A0079C7
:1011F40046800BE4FF121F347BFF7A1F796A7D4817
:091204007C007F077E001214E259
:01120D0022BE
:101A6800010D0115011E0127013001390142014B09
:101A78000154015D01660167016B0172017B0185FB
:101A88000190019C01A901B601C201CF01DC01E866
:101A980001F401FF020A0215021F02290233023C67
:101AA8000245024E02570260026802710279028200
:101AB800028A0292029A02A202AA02B102B902C1E1
:101AC80002C802D002D702DE02E502EC02F302FAF3
:101AD80003010308030F0316031D0320032403282F
:101AE800032D03310336033B03410346034B034FE6
:101AF80003540358035D036103650368036C036FB4
:021B0800037266
:10203700759D01E4F5BDF5BE75BCE0900078F02212
:101EEC00E4F5BDF5BEEF44E8F5BC00000000E5BC30
:101EFC0030E4FB53BCEFAFBDEF75F004A4FFAEF0C4
:051F0C00ADBEEF4DFF2A
:011F110022AD
:100E190090000012063C00000000E4900005F0A3D9
:100E2900F0FF121EEC900076EEF0A3EFF0A3E004C1
:100E3900F0C39410748094805046E4900004F090BC
:100E49000004E0FFC3941074809480502AEF25E0D9
:100E59002458F582E43400F583E0FCA3E0FDEF2596
:100E6900E02456F582E43400F583ECF0A3EDF0902C
:100E79000004E004F080C8900076E0FCA3E08074F0
:100E89009000787410F0E4900004F0900004E0FF02
:100E9900C3941074809480504AEF25E02458F58259
:100EA900E43400F583E0FCA3E0FDEF25E02456F5EA
:100EB90082E43400F583ECF0A3EDF0900004E02522
:100EC900E02456F582E43400F583E0FEA3E0FF90C8
:100ED9000006E02FF0900005E03EF0900004E004E9
:100EE900F080A8900005E0C4F854F0C868FCA3E0BD
:100EF900C4540F48FDE412032A900000120630E49E
:100F0900900004F0900004E025E02468F582E434C0
:100F19001AF583E493FC740193FDE412032A90000B
:100F290000E0F8A3E0F9A3E0FAA3E0FB1202AC6049
:100F39000A4008900004E004F080C9E4FFFE7D2027
:100F49007C41900000E0F8A3E0F9A3E0FAA3E0FBFC
:100F5900120106C004C005C006C007900004E025C0
:100F6900E02466F582E4341AF583E493FE74019370
:100F7900FF7C007D0A120610AC06AD07E412032AB5
:100F8900A804A905AA06AB07D007D006D005D00446
:100F9900120011C004C005C006C007900004E0FF9C
:100FA90025E02466F582E4341AF583E493FC7401A0
:100FB90093FDEF25E02468F582E4341AF583C374C0
:100FC90001939DFDE4939CFCE412032AA804A9055E
:100FD900AA06AB07D007D006D005D00412020FC06D
:100FE90004C005C006C007900004E0FF7E007C0035
:100FF9007D0A120610AC06AD07EC12032AD003D005
:1010090002D001D0001200159000001206309000A5
:1010190000E0FCA3E0FDA3E0FEA3E0FFE4FBFA7916
:1010290020784112020F900000120630900000E073
:0A103900FCA3E0FDA3E0FEA3E0FF2E
:01104300228A
:041FED004100A30A02
:03000B0002190BCC
:10190B00C0E0C083C082C0D09000A3E014F0E070B0
:10191B0013740AF0D209900045E004F070069000B1
:10192B0044E004F0900039E004F07006900038E0D9
:10193B0004F0D3900039E094E8900038E094034031
:10194B0069E4F0A3F0900037E004F07006900036E5
:10195B00E004F0B2CDD3900037E0943C900036E039
:10196B0094004046E4F0A3F0900035E004F07006DC
:10197B00900034E004F0D3900035E0943C900034B8
:10198B00E094004025E4F0A3F0900033E004F07005
:10199B0006900032E004F0D3900033E094189000EE
:1019AB0032E094004004E4F0A3F0D0D0D082D08396
:0319BB00D0E03247
:10202400438E80E4F589758A71758CD5D28CD2A9DA
:03203400D2AF2206
:101C3400900008EBF0A3EAF0A3E9F0900006EEF0C0
:031C4400A3EFF01B
:101C470090000CE02FFF90000BE03EFED3EF9400D6
:101C5700EE940240037F0022E490000DF0A3F09081
:101C6700000BE0FEA3E0FFA3E0FCA3E0FDC39FECB5
:101C77009E5039900007E02DFF900006E03CFE12D1
:101C87001E76900008E0FBA3E0FAA3E0F990000DB0
:101C9700E0FCA3E0F5828C83EF1205EE90000EE0E6
:0E1CA70004F070BB90000DE004F080B37F01EC
:011CB500220C
:10138100900008EBF0A3EAF0A3E9F0900006EEF07C
:03139100A3EFF0D7
:1013940090000CE02FFF90000BE03EFED3EF940092
:1013A400EE940240037F00227F007E02121F12E4AB
:1013B40090000DF0A3F090000DE0FEA3E0FFC3EE5B
:1013C4009402502A121E7690000FEFF0FD90000E4A
:1013D400E02400FF90000DE03402FE121DC89000CE
:1013E4000EE004F070D090000DE004F080C8E4FF3B
:1013F400FE121F12E490000DF0A3F0900006E0FE30
:10140400A3E0FF90000DE0FCA3E0FDC39FEC9E5021
:101414001DE42DFFEC3402FE121E76121DBA90005C
:101424000EE004F070D590000DE004F080CD900043
:1014340006E0FFA3E090000DCFF0A3EFF090000BC7
:10144400E0FEA3E0FF900007E02FFF900006E03EDF
:10145400FEC390000EE09F90000DE09E5038E0FE29
:10146400A3E0FF900006E0FCA3E0FDC3EF9DFDEECA
:101474009CFCA3E0FBA3E0FAA3E0F98D828C831229
:1014840005AFFD121DC890000EE004F070AF90008F
:101494000DE004F080A790000BE0FEA3E0FF9000B5
:1014A40007E02FFF900006E03E90000DF0A3EFF060
:1014B40090000DE0FEA3E0FFC3EE9402501DE42F64
:1014C400FFEE3402FE121E76121DBA90000EE004E6
:0D14D400F070DD90000DE004F080D57F0188
:0114E10022E8
:101E7600E4F5C275C78275C5019000A1EEF0A3EF27
:101E8600F09000A1E0F5C3A3E0F5C475C65A75C687
:081E9600A500122047AFC22293
:0E1DBA0090000FEFF0FD90000DE0FEA3E0FFA3
:101DC80075C78275C5029000A1EEF0A3EFF09000F0
:101DD800A1E0F5C3A3E0F5C4AF058FC275C65A7577
:061DE800C6A50002204721
:101F120075C78275C5039000A1EEF0A3EFF09000A3
:101F2200A1E0F5C3A3E0F5C475C65A75C6A50002C3
:021F3200204746
:0C204700E4F5C7F5C5F5C6F5C3F5C422E5
:061CB60090000012063050
:101CBC00900000E0FCA3E0FDA3E0FEA3E0FFE4FB4A
:101CCC00FA7920784112010690000012063090003B
:101CDC0000E0FCA3E0FDA3E0FEA3E0FF120363AD74
:101CEC0007AC06ECFFEF900004F0EDA3F07B017A5B
:101CFC0000790490000BE4F0A37402F0E4FFFE0200
:021D0C00138141
:101D0E007B017A00790490000BE4F0A37402F0E4F6
:101D1E00FFFE121C34900004E07F00FEA3E0FDEEF7
:101D2E00FCE412032A900000120630900000E0FC42
:101D3E00A3E0FDA3E0FEA3E0FFE4FBFA79207841E7
:101D4E0012020F900000120630900000E0FCA3E09B
:071D5E00FDA3E0FEA3E0FF7E
:011D6500225B
:101DEE00121D0E90003A120630900085E4F0A37496
:101DFE0064F0A312063C40A0000090008B12063C3B
:0F1E0E004080000090008F12063C4040000022F0
:10163C0090007DE0F8A3E0F9A3E0FAA3E0FB9000B2
:10164C0079E0FCA3E0FDA3E0FEA3E0FF1200111281
:10165C000363900093EEF0A3EFF0A3E0FCA3E0FD96
:10166C00C3EF9DFDEE9CFC12032A900087E0F8A3CB
:10167C00E0F9A3E0FAA3E0FB120106C004C005C028
:10168C0006C007900093E0FCA3E0FDEC12032A9047
:10169C00008BE0F8A3E0F9A3E0FAA3E0FB1201064B
:1016AC00D003D002D001D000120015C004C005C078
:1016BC0006C007900096E025E0FF900095E033FE11
:1016CC00C3900094E09FFF900093E09EFE900098E2
:1016DC00E02FFD900097E03EFC12032A90008FE073
:1016EC00F8A3E0F9A3E0FAA3E0FB120106D003D0C3
:1016FC0002D001D000120015120363900084E02F79
:10170C00F0900083E03EF0900095E0FFA3E0A3CFC3
:10171C00F0A3EFF0900093E0FFA3E0A3CFF0A3EFD2
:10172C00F0900083E0FEA3E0FFD39400EE6480947D
:10173C00805008E4900083F0A3F022900085E0FC38
:10174C00A3E0FDD3EF9DEE9C4008900083ECF0A34A
:02175C00EDF0AE
:01175E002268
:0C1FF10041009C0041009D0041009E004A
:101B0A00E4F9FE20960109209704E94402F920CC61
:101B1A0004E94404F9E9605FFF90009CE06F7050AB
:101B2A00A3E004F0E0FDC3943C74809480501490C8
:101B3A00009FE0FC131354017009EC4402F090007A
:101B4A009BE9F0C3ED943C74809480402390009FFD
:101B5A00E04404F090009EE0FF04F0EF6402700697
:101B6A00E94480FE8004E94440FE90009D7432F00E
:101B7A0090009CE9F0802490009FE030E10820E288
:101B8A000590009BE0FE90009FE054FDF054FBF0AE
:0D1B9A00E490009DF0A3F090009CF0AF06D9
:011BA700221B
:1018380020090302190AC209121B0A9000A0EFF03E
:1018480024FE602524FE60672403600302190A90C1
:101858000031E0FF7E0064017002F022EF4E600369
:1018680002190A90003104F02290003AE0FCA3E04B
:10187800FDA3E0FEA3E0FFE4FBFA7980783F1200C5
:101888001590003A120630E4FFFE7D487C42900035
:101898003AE0F8A3E0F9A3E0FAA3E0FB1202AC6097
:1018A80050404E90003A12063C4248000080429058
:1018B800003AE0FCA3E0FDA3E0FEA3E0FFE4FBFAAE
:1018C8007980783F12001190003A120630E4FFFE4A
:1018D8007D807C3F90003AE0F8A3E0F9A3E0FAA30A
:1018E800E0FB1202AC500A90003A12063C3F80001E
:1018F8000090003AE0FCA3E0FDA3E0FEA3E0FF12A5
:031908001CB622E8
:10000E000203CFE86480F8E933E83360110460F04E
:10001E00ED33EC337009E8FCE9FDEAFEEBFF220458
:10002E0060DED3EB9FEA9EE99DE8C2E78CF0C2F753
:10003E0095F0400CE8CCF8E9CDF9EACEFAEBCFFB1F
:10004E0012039A85D0F05804700320D5B3E80470DB
:10005E00075002B2D50203D992D5EC0460F7E4CC76
:10006E00C0E0C398F8603B94186008400DD0E0FBE8
:10007E000203B1E4FBFAC9FC8028E830E406E4C9C7
:10008E00FBE4CAFCE830E305E4C9CACBFCE854073C
:10009E006010F8C3E913F9EA13FAEB13FBEC13FC47
:1000AE00D8F130F52FC3E49CFCEF9BFFEE9AFEEDEA
:1000BE0099FDD0E0FBEF4E4D4C701222DB03020394
:1000CE00D6EC2CFCEF33FFEE33FEED33FDED30E7D7
:1000DE00EB0203B1EF2BFFEE3AFEED39FDD0E0FB64
:1000EE0050130BBB00030203D9ED13FDEE13FEEF0D
:0800FE0013FFEC13FC0203B137
:10010600EC4D6011E8497017ED33EC3304600DE4F3
:10011600FCFFFEFD22E933E8330470F80203CF1238
:10012600039A58046009E4CC248150062850090239
:1001360003D92840030203D6C0E0EB4A7044B980D5
:1001460006D0E0FB0203C5EF4E701CBD8008EBFF36
:10015600EAFEE9FD80EBE98DF0A4FEE5F00201EF91
:10016600E9CDF9EAFEEBFFEF89F0A4FCE5F0CE89D4
:10017600F0A42EFFE435F0CD89F0A42DFEE435F091
:100186008067EF4E7005BD80D780C3EF8BF0A4ACBF
:10019600F0EE8BF0A42CFCE435F0F8EF8AF0A42CFA
:1001A600E5F038FCE433CB8DF0A42CFCE5F03BF80D
:1001B600EE8AF0A42CFCE5F038F8E433CF89F0A4FD
:1001C6002CFCE5F038CF3400CE89F0A42FFFE5F003
:1001D6003EFEE433C98DF0A42EFEE5F039CD8AF05B
:1001E600A42FFFE5F03EFEE43DFD33D0E0FB5007D3
:1001F6000BBB000F0203D9EC2CFCEF33FFEE33FEF2
:06020600ED33FD0203B11F
:10020C000203D9EC5D046005E8590470030203CFC6
:10021C0012039A580460F6EC4860F2EC7004FDFE90
:10022C00FF22C860DB2481C85009C39860025006C5
:10023C000203D69850CAF582E9294B4A7005AB8265
:10024C000203C575F0007C1A7880C3EF9BEE9AED23
:10025C0099400DC3EF9BFFEE9AFEED99FDE842F03D
:10026C00DC23ACF0D0E0FFD0E0FED0E0FDAB822090
:10027C00E7101BEB60BAEC2CFCEF33FFEE33FEED1A
:10028C0033FD0203B1E803F830E705C0F075F00068
:10029C00EF2FFFEE33FEED33FD40B830E7C280AAFE
:1002AC0074F8CC6480CCC86480C8F58204604FC3F9
:1002BC00EB9FF5F0EA9E42F0E99D42F0E89C45F098
:1002CC00603C501DE5825FFFE582D313CB5BCBF422
:1002DC002B5582FB50280ABA002409B9002008804B
:1002EC001DE5825BFBE582D313CF5FCFF4C3132FE5
:1002FC005582FF50090EBE00050DBD00010CC3EB6D
:10030C009FF5F0EA9E42F0E99D42F0E89C45F060D2
:09031C0007CC4820E701B3EC22F4
:1003250075F020800E75F010800575F0087D007E53
:10033500007F003392D530D503120622EC334010EE
:10034500EF33FFEE33FEED33FDEC33FCD5F0ED225C
:0E035500E5F0247EA2D513CC92E7CDCEFF2298
:10036300EDD2E7CD33EC3392D524814006E4FFFE92
:10037300FDFC22FCE4CFCECDCC24E0501174FF80F1
:10038300EDC3CC13CCCD13CDCE13CECF13CF04708E
:07039300F030D5DE02062266
:1006B300E5082403F582E43400F583E0050822907D
:1006C3000000300703900003E475F00112066D0289
:1006D30005962000E97F2ED2008018EF540F249056
:1006E300D43440D4FF30040BEF24BFB41A005003BA
:1006F3002461FFE50960021509050CE50C7002058C
:100703000B30070E900000E475F00112066DEF0246
:1007130005DC021EC57403D2078003E4C207F50893
:10072300900000120684E4F509F50BF50CE5096069
:10073300077F201206F680F5750AFFC201C200C2C8
:1007430002C203C205C206C2081206C2FF700D3000
:1007530007057F00120707AF0CAE0B22B4255FC25B
:10076300D5C2041206C2FF24D0B40A00501A75F091
:100773000A780930D50508B6FF0106C6A426F62077
:10078300D5047002D20380D924CFB41A00EF5004E9
:10079300C2E5D2040209F9D20180C6D20080C0D2D8
:1007A3000280BCD2D580BAD20580B47F201206F66F
:1007B3002002077401B5090040F11206B3FF1206C7
:1007C300F6020730D208D20680951206B3FB120652
:1007D300B3FA1206B3F94A4B700679F77A0A7BFF2C
:1007E30020022EE509602A7E008E827583001205A1
:1007F300AF60060EEE650A70F0C2D5EBC0E0EAC04A
:10080300E0E9C0E0EE120A5AD0E0F9D0E0FAD0E015
:10081300FB120596FF60AAEBC0E0EAC0E0E9C0E086
:100823001206F6D0E02401F9D0E03400FAD0E0FB60
:10083300E50A0460DCD50AD98087D20280A2120AB5
:100843003C60F7E50A7001041203E4A90A600DE5B0
:100853000A600914F50A120AE4EF60F3EA30E702CA
:10086300F404C3995079EAF4250A0430E701E40457
:10087300F50A800D120A3C60C1EA050A250A120333
:10088300E4EA90002FF030E701E4250A04D50A04D6
:1008930020050114120A5AE4C0E0120AE490002F62
:1008A300E0601320E70714F01206DE802204F0D084
:1008B300E014C0E07F001206DEE50A60071206D5E9
:1008C300150A800B3005031206D5D0E0020730D09D
:1008D300E00480C4120A3C609EE50A041203E4901B
:1008E300002FEAF0E50A2005026001042404120A3D
:0108F3005AAA
:1008F40074FF04C0E0120AE41206DEE50A200502D1
:1009040060031206D5D0E0B50AE87F451206E890E8
:10091400002FE07F2B30E7047F2DF404C0E01206A3
:10092400F6D0E075F00A84C0F01206DFD0E01206BB
:10093400DF020730791080027908C206C2088008F5
:10094400D2D5790A8004790AC2D5E50A047002F581
:100954000AE4FAFDFEFF1206B3FC7B082001131221
:1009640006B3FD7B1030000A1206B3FE1206B3FF75
:100974007B20EC3382D592D55013C3E43000069F1C
:10098400FFE49EFEE42001039DFDE49CFCE4CBF81F
:10099400C201EC700CCFCECDCCE824F8F870F38013
:1009A40017C3EF33FFEE33FEED33FDEC33FCEB33D3
:1009B400FB994002FB0FD8E9EB300105F8D0E0C405
:1009C40048B201C0E00AEC4D4E4F78207B0070C263
:1009D400EAB50A0040BCC0E0120A5CD0F0D0E020C6
:1009E4000104C4C0E0C4B201C0F01206DFD0F0D5E7
:1009F400F0EB02073012068D07CD53093858079ED5
:100A04004C079A42093C4F09444409444907B343FB
:100A1400094A5508774608D7450841470B17500738
:100A2400A22D07A62E07C92B07AA2307C7200B0050
:100A34002A076248000007C1E50AB4FF03750A06E5
:100A44001206B3FC1206B3FD1206B3FE1206B3FF80
:100A5400900028020421790AA2D520031430050944
:100A6400B910020404B9080104A2D52006025001F9
:100A7400042002689202B509005034C0E07F20309F
:100A840003197F30A20272067205500F120AB3C214
:100A940002C206C205C2087F30800F300503E9C0D8
:100AA400E01206F6300503D0E0F9D0E0B509CC3009
:100AB40005177F30B9100C1206F67F583004077FF3
:100AC400788003B908031206F63002057F2D02066A
:100AD400F67F202008F87F2B2006F322920280CF95
:100AE4007F00B40700500B2428F582E43400F5831A
:100AF400E0FF22286E756C6C2900D2011206B33017
:100B040001F8C201780930D50108F60207622D50B8
:100B14004349581206B32403B405004001E4900B82
:100B240012931206E7743A1206E7D2037509040217
:020B340009387E
:10039A00E9D2E7C933E833F892D5EDD2E7CD33ECA9
:0703AA0033FC5002B2D52222
:1003B100EC30E7100FBF000C0EBE00080DBD0004AD
:1003C1000BEB6014A2D5EB13FCED92E7FD2274FF59
:1003D100FCFDFEFF22E480F8A2D574FF13FC7D80B2
:0303E100E480EFC6
:1003E400F920E73624F950037907E4F42402FBE505
:1003F40082158270021583DBF6E024FB501BE96052
:1004040014E4F0E582158270021583E004F0B40A66
:0D04140008E4F0D9EE7401F00A22C2D522EE
:10042100ED33EC3392D5FA602AB4FF33EDC2E77BAA
:10043100FF60067A047946E4227A04794F20D504D4
:100441007A04794A224E614E002B494E46002D49CD
:100451004E4600E47A08F0A3DAFC7B00740722C060
:1004610083C082ECC0E0EDC0E0EEC0E0EFC0E0EAA6
:1004710075F010A4CAABF075F04DA42BFBE435F078
:10048100FCEA2410FAEB34C5FBEC34D9FCEDC2E7ED
:10049100FF75F056A4F42411C5F0F434C58FF0A40F
:1004A1002AE5F03BE43CF020E714120556D0E0FFCA
:1004B100D0E0FED0E0FDD0E0FC12020F8014F40485
:1004C100120556D0E0FFD0E0FED0E0FDD0E0FC12F6
:1004D1000106D082D083E0FAEDD2E7CD33EC3324AC
:1004E10082FBE4C3CF33CFCE33CECD33CD33DBF379
:1004F1007B0775F00A846004F0A31B0AE5F0F0A302
:100501008FF0740AA4FFACF08EF0740AA42CFEAC38
:10051100F050010C8DF0740AA42CFDE435F0F0A329
:05052100DBDE7407227F
:100526003F8000004120000042C80000447A0000DD
:10053600461C400047C35000497424004B1896805F
:100546004CBEBC205A0E1BCA6753C21C749DC5AE56
:10055600FB60065407601C2323120584EB543860A5
:100566000912057012057F120106ECF8EDF9EEFA94
:10057600EFCB22EB12057F80F1543803241C900543
:1005860026FE93FC0EEE93FD0EEE930ECE93FF2207
:101BB40002175FE493A3F8E493A34003F68001F2D1
:101BC40008DFF48029E493A3F85407240CC8C33332
:101BD400C4540F4420C8834004F456800146F6DF01
:101BE400E4800B0102040810204080901FE9E47E89
:101BF400019360BCA3FF543F30E509541FFEE493F6
:101C0400A360010ECF54C025E060A840B8E493A3BC
:101C1400FAE493A3F8E493A3C8C582C8CAC583CAE7
:101C2400F0A3C8C582C8CAC583CADFE9DEE780BE9F
:011FFD0000E3
:10059600BB010689828A83E0225002E722BBFE0263
:0905A600E32289828A83E4932296
:1005AF00BB010CE58229F582E5833AF583E0225001
:1005BF0006E92582F8E622BBFE06E92582F8E2224B
:0D05CF00E58229F582E5833AF583E4932265
:1005DC00BB010689828A83F0225002F722BBFE01FE
:0205EC00F322F8
:1005EE00F8BB010DE58229F582E5833AF583E8F043
:1005FE00225006E92582C8F622BBFE05E92582C8EF
:02060E00F222D6
:10061000EF8DF0A4A8F0CF8CF0A428CE8DF0A42EFE
:02062000FE22B8
:0E062200C3E49FFFE49EFEE49DFDE49CFC22E9
:0C063000ECF0A3EDF0A3EEF0A3EFF0223D
:10063C00A8828583F0D083D08212065312065312FF
:10064C000653120653E473E493A3C583C5F0C58324
:10065C00C8C582C8F0A3C583C5F0C583C8C582C808
:01066C00226B
:10066D00F8E0FBA3A3E0F925F0F0E5821582700216
:07067D001583E0FA38F022BA
:09068400EBF0A3EAF0A3E9F02277
:10068D00D083D082F8E4937012740193700DA3A3FC
:10069D0093F8740193F5828883E473740293686010
:0606AD00EFA3A3A380DF10
:101EC500EFB40A07740D121ED0740A309811A89940
:101ED500B8130CC2983098FDA899C298B811F6307D
:071EE50099FDC299F5992255
:00000001FF
